:1000000009C016C015C021C013C012C011C010C055
:100010000FC00EC011241FBECFE9CDBF10E0A0E677
:10002000B0E001C01D92A136B107E1F726D040C073
:10003000E7CF2AEF30E003C0F9013197F1F76150C3
:10004000710981099109C0F708951F920F920FB6A7
:100050000F9211248F939F9380916000882329F041
:1000600088B390E1892788BB01C0C4989F918F9184
:100070000F900FBE0F901F901895F89417BA87B382
:10008000886187BB18BA83B7836083BF89B78260F2
:1000900089BF789481E0B09B03C08093600002C068
:1000A00010926000B19B02C0C39AF5CFC398F3CF02
:0400B000F894FFCFF2
:00000001FF
